:100000000C947D000C94A5000C94A5000C94A50004
:100010000C94A5000C9437050C94A5000C944F0487
:100020000C94A5000C94A5000C94A5000C94A500BC
:100030000C94A5000C94A5000C94A5000C94A500AC
:100040000C9499120C94A5000C94E4140C941615BD
:100050000C94A5000C94A5000C94A5000C94A5008C
:100060000C94A5000C94A5000000000800020100FB
:100070000003040700000000000000000102040863
:100080001020408001020408102001020408102002
:10009000040404040404040402020202020203032E
:1000A0000303030300000000250028002B000000CC
:1000B0000000240027002A004E414E494E49545961
:1000C000494E46CDCCCC3D0AD7233C17B7D1387723
:1000D000CC2B329595E6241FB14F0A000020410039
:1000E00000C84200401C4620BCBE4CCA1B0E5AAE83
:1000F000C59D7400CA0F4615E80F11241FBECFEF2F
:10010000D8E0DEBFCDBF11E0A0E0B1E0E8ECFEE357
:1001100002C005900D92AA3CB107D9F722E0AAECE3
:10012000B1E001C01D92AA3CB207E1F710E0C8EFB0
:10013000D0E004C02297FE010E943D1BC43FD107BE
:10014000C9F70E9474130C94571F0C94000060911F
:10015000E00183E590E00C94651D0CB405FC0DC036
:100160009EBD00000DB407FEFDCF9EB58EBD000004
:100170000DB407FEFDCF8EB508958EBD00000DB401
:1001800007FEFDCF8EB59EBD00000DB407FEFDCF6E
:100190009EB508952F923F924F925F926F927F92F9
:1001A0008F929F92AF92BF92CF92DF92EF92FF9287
:1001B0000F931F93CF93DF9300D000D000D0CDB723
:1001C000DEB782E390E00E945F1D2C0184E390E0A3
:1001D0000E945F1D4C0186E390E00E945F1D5C0160
:1001E00088E390E00E945F1D6C018CE390E00E9428
:1001F0005F1D7C018EE390E00E945F1D8C0180E416
:1002000090E00E945F1D9E838D8382E490E00E94B7
:100210005F1D3C0186E490E00E94571D282E87E474
:1002200090E00E94571D382E80E590E00E94571DF7
:10023000898381E590E00E94571D8A8382E590E0E2
:100240000E94571D8B8383E590E00E94571D8C838D
:100250002FEF42165206A1F0B20180E090E00E941A
:10026000FC1920E030E04AE754E40E9463196093EF
:100270004A0170934B0180934C0190934D0108C04B
:1002800010924A0110924B0110924C0110924D01B4
:100290003FEF83169306A1F0B40180E090E00E9446
:1002A000FC1920E030E04AE754E40E9463196093AF
:1002B000460170934701809348019093490108C01B
:1002C0001092460110924701109248011092490184
:1002D0008FEFA816B806A1F0B50180E090E00E946B
:1002E000FC1920E030E04AE754E40E94631960936F
:1002F000420170934301809344019093450108C0EB
:100300001092420110924301109244011092450153
:100310009FEFC916D906A1F0B60180E090E00E94D7
:10032000FC1920E030E04AE754E40E94631960932E
:100330003E0170933F01809340019093410108C0BA
:1003400010923E0110923F01109240011092410123
:10035000EFEFEE16FE06A1F0B70180E090E00E94FC
:10036000FC1920E030E04AE754E40E9463196093EE
:100370002A0170932B0180932C0190932D0108C0CA
:1003800010922A0110922B0110922C0110922D0133
:100390000F3FFFEF1F07A1F0B80180E090E00E943F
:1003A000FC1920E030E04AE754E40E9463196093AE
:1003B000260170932701809328019093290108C09A
:1003C0001092260110922701109228011092290103
:1003D0002D813E812F3F8FEF3807A1F0B90180E0DA
:1003E00090E00E94FC1920E030E04AE754E40E94CB
:1003F00063196093220170932301809324019093E9
:10040000250108C0109222011092230110922401AC
:10041000109225019FEF69167906A1F0B30180E0E3
:1004200090E00E94FC1920E030E04AE754E40E948A
:10043000631960931E0170931F01809320019093B4
:10044000210108C010921E0110921F01109220017C
:1004500010922101EFEF2E1220920701FFEF3F12C1
:10046000309206012981213019F42093E30102C062
:100470001092E3013A81313019F43093E20102C065
:100480001092E2018B81813019F48093E10102C066
:100490001092E1019C81913019F49093E00102C027
:1004A0001092E00126960FB6F894DEBF0FBECDBFC6
:1004B000DF91CF911F910F91FF90EF90DF90CF9040
:1004C000BF90AF909F908F907F906F905F904F9074
:1004D0003F902F900895813029F46091070186E4C0
:1004E00090E006C0823031F46091060187E490E02C
:1004F0000C94651D0895813009F055C0613099F460
:1005000020E030E04AE754E460914A0170914B01E9
:1005100080914C0190914D010E94B21A0E94D01915
:1005200082E390E096C0623099F420E030E04AE740
:1005300054E4609146017091470180914801909187
:1005400049010E94B21A0E94D01984E390E081C050
:10055000633099F420E030E04AE754E460914201CE
:100560007091430180914401909145010E94B21A1B
:100570000E94D01986E390E06CC0643009F06BC033
:1005800020E030E04AE754E460913E0170913F0181
:1005900080914001909141010E94B21A0E94D019AD
:1005A00088E390E056C0823009F055C0613099F47C
:1005B00020E030E04AE754E460912A0170912B0179
:1005C00080912C0190912D010E94B21A0E94D019A5
:1005D0008CE390E03EC0623099F420E030E04AE7DE
:1005E00054E4609126017091270180912801909137
:1005F00029010E94B21A0E94D0198EE390E029C00E
:10060000633099F420E030E04AE754E4609122013D
:100610007091230180912401909125010E94B21ACA
:100620000E94D01980E490E014C06430A1F420E06E
:1006300030E04AE754E460911E0170911F018091FF
:100640002001909121010E94B21A0E94D01982E4E7
:1006500090E00C94731D0895813029F46091E301BA
:1006600080E590E006C0823031F46091E20181E5DE
:1006700090E00C94651D833029F46091E10182E5DE
:1006800090E0F7CF843011F40C94A700089587E42C
:1006900080937C0087EE80937A00089580917800A3
:1006A000909179008115924078F58091F20188232C
:1006B00091F080910701843020F4809107018F5FD1
:1006C00001C081E0809307016091070186E490E01A
:1006D0000E94651D12C08091F101882371F0809104
:1006E0000601843020F4809106018F5F01C081E013
:1006F0008093060182E00E946B02809178009091C5
:10070000790081159240C8F308959091EF019923E3
:1007100011F040E011C09091EE0191110AC090914A
:10072000ED01911108C09091EC01992391F343E000
:1007300003C041E001C042E0682F85E092E00C94E4
:10074000BB108091F101811109C08091F2018111EA
:1007500005C08091F001882309F454C08091EF0115
:1007600081110DC08091EE01811109C08091ED01D0
:10077000811105C08091EC01882309F443C085E014
:1007800092E00E94BD118091F2018823C9F080910E
:100790000701813011F483E005C0809107018230A8
:1007A00019F484E00C94850380910701833011F4DF
:1007B00085E0F8CF80910701843041F581E0F2CFE8
:1007C0008091F1018823C1F080910601813011F4FC
:1007D0008AE0E8CF80910601823011F48BE0E2CF0D
:1007E00080910601833011F48CE0DCCF809106010A
:1007F000843061F488E0D6CF8091F001882331F015
:100800008FE0D0CF85E092E00C94B611089580E19E
:100810008AB95C9AF894A0EBB0E01C92E1EBF0E0AE
:1008200010821092B2008CE98093B3008C918260A8
:100830008C93808187608083E0E7F0E08081826034
:10084000808384E080936D00809368000E94CA00DA
:100850000E94470378940E94CB118CB58C7F8CBD8D
:100860008DB581608DBD26E040E855E260E070E026
:1008700087E292E00E946C166EE170E08FEF91E0EB
:100880000E94B41366E070E089EF91E00E94B41317
:1008900020E044E064E185E092E00C94D5101F92E2
:1008A0000F920FB60F921124AF92BF92CF92DF92A8
:1008B000EF92FF920F931F932F933F934F935F936A
:1008C0006F937F938F939F93AF93BF93CF93DF9358
:1008D000EF93FF93A090CC01B090CD01650170E43F
:1008E000C79ED02CCC241124C0910801D0910901BD
:1008F00000910A0110910B01A0910C01B0910D0122
:10090000E091CE01F091CF016091D0017091D101C1
:10091000E090D201F090D3014091D4015091D501E3
:10092000CA01837099278C299D296E0123E0C22278
:10093000DD24DC2CCC24D29420EFD2228C299D29DA
:10094000680123E0C222DD24DC2CCC24DD0CDD0C8C
:100950008C299D296D0123E0C222DD24DC2CCC24CE
:100960008C299D296F0136E0CC0CDD1C3A95E1F70E
:10097000DD248C299D296B0123E0C222DD2424E0A3
:10098000CC0CDD1C2A95E1F78C299D29670123E019
:10099000C222DD24CC0CDD1CCC0CDD1C8C299D2955
:1009A000D090DE01DD20F1F195012C703327322F3C
:1009B00022273295307FCC70DD27DC2FCC27DD0F4E
:1009C000DD0F2C2B3D2BCCE0EC22FF242E293F29E0
:1009D0000C701127102F0027202B312BAC70BB2758
:1009E000D6E0AA0FBB1FDA95E1F72A2B3B2BEC7060
:1009F000FF2714E0EE0FFF1F1A95E1F72E2B3F2B78
:100A00006C707727660F771F660F771F262B372BA3
:100A10004C7055275595479555954795242B352B63
:100A20008227932721E02D252093DE015C985C9A94
:100A30000E94AD009093CB01FF91EF91DF91CF9198
:100A4000BF91AF919F918F917F916F915F914F91E6
:100A50003F912F911F910F91FF90EF90DF90CF90DA
:100A6000BF90AF900F900FBE0F901F9018951F92E0
:100A70000F920FB60F9211242F938F939F93AF93E2
:100A8000BF932091DC012093DD018091DA018093F6
:100A9000DB0199B192FB992790F99093DC0189B120
:100AA00083FB882780F98093DA01211115C09923EF
:100AB00099F0882329F080E090E0A0E8BFEB04C023
:100AC00080E090E0A0E8BFE38093D6019093D70147
:100AD000A093D801B093D901BF91AF919F918F910D
:100AE0002F910F900FBE0F901F9018956F927F92CD
:100AF0008F929F92AF92BF92CF92DF92EF92FF922E
:100B00000F931F93CF93DF931F92CDB7DEB7282F9C
:100B1000813099F1E0F0823009F445C0833009F06A
:100B200059C080903E0190903F01A0904001B0904C
:100B30004101C0901E01D0901F01E0902001F09073
:100B400021016090E001712C0091F40141C080907E
:100B50004A0190904B01A0904C01B0904D01C09083
:100B60002A01D0902B01E0902C01F0902D01609093
:100B7000E301712C0091F7012BC080904601909009
:100B80004701A0904801B0904901C0902601D09043
:100B90002701E0902801F09029016090E201712C7A
:100BA0000091F60115C08090420190904301A09001
:100BB0004401B0904501C0902201D0902301E09003
:100BC0002401F09025016090E101712C0091F50164
:100BD00010E009C000E010E0612C712CC12CD12C78
:100BE0007601460157016AE287E292E029830E947A
:100BF0000E174AE050E02981622F87E292E00E94BE
:100C0000F31766E587E292E00E940E1741E050E09C
:100C1000B80187E292E00E94DE1760E587E292E089
:100C20000E940E1741E050E0B30187E292E00E947B
:100C3000DE1762E587E292E00E940E1760E387E22A
:100C400092E00E940E1765E587E292E00E940E177F
:100C500020E030E040E251E4C501B4010E945F1998
:100C600087FF05C060E387E292E00E940E1723E051
:100C700030E0B501A40187E292E00E94E51869E442
:100C800087E292E00E940E1720E030E040E251E45B
:100C9000C701B6010E945F1987FF05C060E387E2C4
:100CA00092E00E940E1723E030E0B701A60187E230
:100CB00092E00E94E7186EE170E080E090E00F9013
:100CC000DF91CF911F910F91FF90EF90DF90CF9028
:100CD000BF90AF909F908F907F906F900C94061371
:100CE0006EE471E087E292E00E940C1761E571E02A
:100CF00087E292E00E9429176EE170E080E090E0C8
:100D00000C9406136EE471E087E292E00E940C17E7
:100D100064E571E087E292E00E9429176EE170E0DD
:100D200080E090E00C9406138091EF01882319F085
:100D30008DE090E00AC08091F701882371F08091E6
:100D4000E701882339F081E090E09093D50180930A
:100D5000D40107C082E090E0F8CF1092D501109244
:100D6000D4018091EE01882319F08DE090E00AC053
:100D70008091F601882371F08091E601882339F093
:100D800081E090E09093D3018093D20107C082E08C
:100D900090E0F8CF1092D3011092D2018091ED0132
:100DA000882319F08DE090E00AC08091F501882336
:100DB00071F08091E501882339F081E090E0909313
:100DC000D1018093D00107C082E090E0F8CF10926B
:100DD000D1011092D0018091EC01882319F08DE0AF
:100DE00090E00AC08091F401882371F08091E401C1
:100DF000882339F081E090E09093CF018093CE0179
:100E000007C082E090E0F8CF1092CF011092CE019F
:100E10008091F201882339F08DE090E090930D01EC
:100E200080930C0104C010920D0110920C0180916E
:100E3000F101882339F08DE090E090930B018093CD
:100E40000A0104C010920B0110920A018091F00176
:100E5000882339F08DE090E0909309018093080198
:100E600004C010920901109208018091F3018823B7
:100E700039F082E090E09093CD018093CC01089509
:100E80001092CD011092CC010895FF920F931F9301
:100E9000CF93DF9300D000D000D0CDB7DEB722E0F3
:100EA00030E040E050E06FEF71E0CE0101960E942B
:100EB000941467E571E0CE0101960E947514182F15
:100EC000CE0101960E948313111103C00FEF10E0B1
:100ED00002C000E010E022E030E040E050E06FEFC0
:100EE00071E0CE0101960E9494146AE571E0CE0192
:100EF00001960E947514F82ECE0101960E9483136C
:100F0000FF2011F001E010E022E030E040E050E08E
:100F10006FEF71E0CE0101960E9494146DE571E0CF
:100F2000CE0101960E947514F82ECE0101960E9402
:100F30008313FF2011F002E010E022E030E040E0F7
:100F400050E06FEF71E0CE0101960E94941460E6CC
:100F500071E0CE0101960E947514F82ECE01019623
:100F60000E948313F11005C00F3F110509F4ADC1B4
:100F700002C003E010E024E030E042E050E06FEF18
:100F800071E0CE0101960E94941463E671E0CE01F7
:100F900001960E947514F82ECE0101960E948313CB
:100FA000FF20E9F00130110591F03CF40115110525
:100FB00071F581E08093EB012AC00230110559F0F0
:100FC0000330110521F581E08093E80120C081E024
:100FD0008093EA011CC081E08093E90118C00130D0
:100FE000110581F034F40115110589F41092EB011B
:100FF0000EC00230110549F00330110541F4109282
:10100000E80105C01092EA0102C01092E90126E051
:1010100030E044E050E06FEF71E0CE0101960E94B5
:10102000941466E671E0CE0101960E947514F82EC4
:10103000CE0101960E948313FF2091F0013011052B
:1010400059F024F40115110539F01AC002301105C8
:1010500019F003301105A1F481E08093DF0110C085
:101060000130110559F024F40115110539F008C0BB
:101070000230110519F00330110511F41092DF014F
:1010800028E030E046E050E06FEF71E0CE010196DD
:101090000E94941469E671E0CE0101960E947514D5
:1010A000F82ECE0101960E948313FF20E9F0013053
:1010B000110591F03CF40115110571F581E0809363
:1010C000E7012AC00230110559F00330110521F55E
:1010D00081E08093E40120C081E08093E6011CC0A0
:1010E00081E08093E50118C00130110581F034F4EE
:1010F0000115110589F41092E7010EC002301105A7
:1011000049F00330110541F41092E40105C010923A
:10111000E60102C01092E50129E030E048E050E02D
:101120006FEF71E0CE0101960E9494146CE671E0BD
:10113000CE0101960E947514F82ECE0101960E94F0
:101140008313FF2009F455C02FE030E049E050E060
:101150006FEF71E0CE0101960E949414BE016F5FA3
:101160007F4F89EF91E00E940714CE0101960E9403
:1011700083130130110521F184F401151105C9F51E
:1011800089EF91E00E94D91460933A0170933B017A
:1011900080933C0190933D012CC002301105E9F091
:1011A0000330110531F589EF91E00E94D914609365
:1011B0002E0170932F01809330019093310119C05B
:1011C00089EF91E00E94D914609336017093370142
:1011D00080933801909339010CC089EF91E00E940F
:1011E000D91460933201709333018093340190934A
:1011F000350120E130E04FE050E06FEF71E0CE01CB
:1012000001960E9494146EE671E0CE0101960E9450
:101210007514F82ECE0101960E948313FF2009F465
:1012200054C026E130E040E150E06FEF71E0CE01C4
:1012300001960E949414BE016F5F7F4F89EF91E089
:101240000E940714CE0101960E94831301301105FC
:1012500019F17CF4012BC9F589EF91E00E94D914B2
:1012600060931A0170931B0180931C0190931D01E0
:101270002CC002301105E9F00330110531F589EF7A
:1012800091E00E94D91460930E0170930F01809336
:1012900010019093110119C089EF91E00E94D914B7
:1012A00060931601709317018093180190931901B0
:1012B0000CC089EF91E00E94D914609312017093E1
:1012C0001301809314019093150167E771E08FEF8C
:1012D00091E00E941E141092F80126960FB6F89421
:1012E000DEBF0FBECDBFDF91CF911F910F91FF9059
:1012F00008956F927F928F929F92AF92BF92CF92FA
:10130000DF92EF92FF920F931F93CF93DF9385E0CD
:1013100092E00E94B611C0E0D0E011E0C230D105E9
:1013200009F463C0C330D10509F48DC0C130D105C3
:1013300071F18091F701811304C08091EF0188233E
:1013400089F0C0904A01D0904B01E0904C01F090A0
:101350004D0180902A0190902B01A0902C01B0901B
:101360002D0110C0C0903A01D0903B01E0903C01AB
:10137000F0903D0180901A0190901B01A0901C01FB
:10138000B0901D017090E3010091E70189C0809148
:10139000F601811304C08091EE01882389F0C0908A
:1013A0004601D0904701E0904801F09049018090BB
:1013B000260190902701A0902801B090290110C02B
:1013C000C0903601D0903701E0903801F09039019B
:1013D0008090160190901701A0901801B09019010B
:1013E0007090E2010091E6015BC08091F5018113EC
:1013F00004C08091ED01882389F0C0904201D09013
:101400004301E0904401F0904501809022019090CA
:101410002301A0902401B090250110C0C09032019A
:10142000D0903301E0903401F090350180901201AA
:1014300090901301A0901401B09015017090E101FB
:101440000091E5012DC08091F401811304C08091C9
:10145000EC01882389F0C0903E01D0903F01E090DC
:101460004001F090410180901E0190901F01A090DA
:101470002001B090210110C0C0902E01D0902F010A
:10148000E0903001F090310180900E0190900F01BA
:10149000A0901001B09011017090E0010091E40162
:1014A0006C2E4C2F60E085E092E00E94BB1020E0A3
:1014B00030E040E251E4C701B6010E945F1987FFA6
:1014C00006C066E771E085E092E00E940C1723E019
:1014D00030E0B701A60185E092E00E94E51865E5DD
:1014E00071E085E092E00E940C17462D68E085E0EF
:1014F00092E00E94BB1023E030E0B501A40185E03A
:1015000092E00E94E51860E771E085E092E00E94B9
:101510000C17462D6FE085E092E00E94BB1077200B
:1015200019F062E771E002C065E771E085E092E0E2
:101530000E940C17462D62E185E092E00E94BB10EC
:10154000002319F068E771E002C065E771E085E00B
:1015500092E00E940C172196C430D10509F0DECE2E
:10156000DF91CF911F910F91FF90EF90DF90CF907F
:10157000BF90AF909F908F907F906F900895CF9283
:10158000DF92EF92FF928091F201882309F470C1FB
:101590008091EF01882309F455C0E091070184E0B0
:1015A000E89FF0011124E157FE4F208131814281F3
:1015B00053816091D6017091D7018091D8019091AB
:1015C000D9010E94B21A20914A0130914B014091F9
:1015D0004C0150914D010E94FB186B017C0124E3EA
:1015E00030E040EF51E40E94AE1A18166CF484E328
:1015F00090E0A0EFB1E480934A0190934B01A09357
:101600004C01B0934D011AC020E030E0A901C701A0
:10161000B6010E945F1987FD09C0C0924A01D092AD
:101620004B01E0924C01F0924D0108C010924A012A
:1016300010924B0110924C0110924D0161E081E03B
:101640000E947B028091EE01882309F455C0E0914D
:10165000070184E0E89FF0011124E157FE4F20814B
:101660003181428153816091D6017091D70180917F
:10167000D8019091D9010E94B21A2091460130916F
:10168000470140914801509149010E94FB186B01AC
:101690007C0124E330E040EF51E40E94AE1A1816BA
:1016A0006CF484E390E0A0EFB1E480934601909362
:1016B0004701A0934801B09349011AC020E030E0EF
:1016C000A901C701B6010E945F1987FD09C0C09238
:1016D0004601D0924701E0924801F092490108C0CA
:1016E0001092460110924701109248011092490150
:1016F00062E081E00E947B028091ED01882309F481
:1017000055C0E091070184E0E89FF0011124E15702
:10171000FE4F20813181428153816091D6017091C9
:10172000D7018091D8019091D9010E94B21A2091DD
:1017300042013091430140914401509145010E9482
:10174000FB186B017C0124E330E040EF51E40E9480
:10175000AE1A18166CF484E390E0A0EFB1E4809325
:10176000420190934301A0934401B09345011AC0F4
:1017700020E030E0A901C701B6010E945F1987FD92
:1017800009C0C0924201D0924301E0924401F0921C
:10179000450108C010924201109243011092440189
:1017A0001092450163E081E00E947B028091EC0190
:1017B000882309F455C0E091070184E0E89FF00117
:1017C0001124E157FE4F2081318142815381609184
:1017D000D6017091D7018091D8019091D9010E94D2
:1017E000B21A20913E0130913F0140914001509149
:1017F00041010E94FB186B017C0124E330E040EFC3
:1018000051E40E94AE1A18166CF484E390E0A0EF45
:10181000B1E480933E0190933F01A0934001B093C7
:1018200041011AC020E030E0A901C701B6010E94C1
:101830005F1987FD09C0C0923E01D0923F01E0923E
:101840004001F092410108C010923E0110923F0108
:10185000109240011092410164E081E00E947B02FD
:101860001092D6011092D7011092D8011092D9018E
:101870008091F101882309F470C18091EF018823E0
:1018800009F455C0E091060184E0E89FF0011124BD
:10189000E558FE4F20813181428153816091D6010C
:1018A0007091D7018091D8019091D9010E94B21A0C
:1018B00020912A0130912B0140912C0150912D0152
:1018C0000E94FB186B017C0123EA31E040E450E404
:1018D0000E94AE1A18166CF483EA91E0A0E4B0E41A
:1018E00080932A0190932B01A0932C01B0932D019A
:1018F0001AC020E030E0A901C701B6010E945F19BB
:1019000087FD09C0C0922A01D0922B01E0922C01E0
:10191000F0922D0108C010922A0110922B01109212
:101920002C0110922D0161E082E00E947B028091E7
:10193000EE01882309F455C0E091060184E0E89F98
:10194000F0011124E558FE4F2081318142815381FD
:101950006091D6017091D7018091D8019091D90101
:101960000E94B21A2091260130912701409128014E
:10197000509129010E94FB186B017C0123EA31E0A0
:1019800040E450E40E94AE1A18166CF483EA91E029
:10199000A0E4B0E48093260190932701A09328014E
:1019A000B09329011AC020E030E0A901C701B601B7
:1019B0000E945F1987FD09C0C0922601D0922701BD
:1019C000E0922801F092290108C01092260110929D
:1019D0002701109228011092290162E082E00E9402
:1019E0007B028091ED01882309F455C0E091060146
:1019F00084E0E89FF0011124E558FE4F20813181F9
:101A0000428153816091D6017091D7018091D801B4
:101A10009091D9010E94B21A2091220130912301A4
:101A200040912401509125010E94FB186B017C011B
:101A300023EA31E040E450E40E94AE1A18166CF438
:101A400083EA91E0A0E4B0E4809322019093230123
:101A5000A0932401B09325011AC020E030E0A90131
:101A6000C701B6010E945F1987FD09C0C09222011B
:101A7000D0922301E0922401F092250108C0109237
:101A8000220110922301109224011092250163E09B
:101A900082E00E947B028091EC01882309F455C00A
:101AA000E091060184E0E89FF0011124E558FE4F23
:101AB00020813181428153816091D6017091D7019B
:101AC0008091D8019091D9010E94B21A20911E01F3
:101AD00030911F0140912001509121010E94FB187B
:101AE0006B017C0123EA31E040E450E40E94AE1A2D
:101AF00018166CF483EA91E0A0E4B0E480931E0130
:101B000090931F01A0932001B09321011AC020E0FF
:101B100030E0A901C701B6010E945F1987FD09C025
:101B2000C0921E01D0921F01E0922001F09221018B
:101B300008C010921E0110921F01109220011092F5
:101B4000210164E082E00E947B021092D601109293
:101B5000D7011092D8011092D9018091F001882309
:101B600009F4B1C08091EF01882341F120E030E019
:101B7000A9016091D6017091D7018091D80190910F
:101B8000D9010E94AE1A18162CF481E08093E3016B
:101B90000E942C0320E030E0A9016091D6017091F1
:101BA000D7018091D8019091D9010E945F1987FFD8
:101BB00005C01092E30181E00E942C038091EE01A8
:101BC000882349F120E030E0A9016091D6017091AD
:101BD000D7018091D8019091D9010E94AE1A1816B0
:101BE00034F481E08093E20182E00E942C0320E043
:101BF00030E0A9016091D6017091D7018091D801A0
:101C00009091D9010E945F1987FF05C01092E201EF
:101C100082E00E942C038091ED01882349F120E0AD
:101C200030E0A9016091D6017091D7018091D8016F
:101C30009091D9010E94AE1A181634F481E0809375
:101C4000E10183E00E942C0320E030E0A9016091D3
:101C5000D6017091D7018091D8019091D9010E944D
:101C60005F1987FF05C01092E10183E00E942C03F9
:101C70008091EC01882339F120E030E0A9016091E6
:101C8000D6017091D7018091D8019091D9010E941D
:101C9000AE1A18162CF481E08093E0010E94A70090
:101CA00020E030E0A9016091D6017091D7018091C8
:101CB000D8019091D9010E945F1987FF04C010924A
:101CC000E0010E94A7001092D6011092D701109255
:101CD000D8011092D901FF90EF90DF90CF90089536
:101CE0000E944E038091CB0180FF29C08091CB01DF
:101CF00080FF07C061E070E080E090E00E94061382
:101D0000F5CF8091F201811108C08091F10181111C
:101D100004C08091F001882351F081E08093EF01AD
:101D20001092EE011092ED011092EC0108C0109299
:101D3000EF018091F70191E089278093F70180916D
:101D4000CB0181FF29C08091CB0181FF07C061E0F9
:101D500070E080E090E00E940613F5CF8091F201E0
:101D6000811108C08091F101811104C08091F001BE
:101D7000882351F01092EF0181E08093EE011092E0
:101D8000ED011092EC0108C01092EE018091F60175
:101D900091E089278093F6018091CB0182FF29C0D1
:101DA0008091CB0182FF07C061E070E080E090E0AD
:101DB0000E940613F5CF8091F201811108C0809135
:101DC000F101811104C08091F001882351F010923B
:101DD000EF011092EE0181E08093ED011092EC0191
:101DE00008C01092ED018091F50191E08927809360
:101DF000F5018091CB0183FF29C08091CB0183FF46
:101E000007C061E070E080E090E00E940613F5CF2B
:101E10008091F201811108C08091F101811104C00B
:101E20008091F001882351F01092EF011092EE01A1
:101E30001092ED0181E08093EC0108C01092EC015A
:101E40008091F40191E089278093F4018091CB0186
:101E500084FF1BC08091CB0184FF07C061E070E06C
:101E600080E090E00E940613F5CF8091F20191E0AE
:101E700089278093F201811160C01092EF011092C6
:101E8000EE011092ED011092EC018091CB0185FFE3
:101E90001BC08091CB0185FF07C061E070E080E04E
:101EA00090E00E940613F5CF8091F10191E089271F
:101EB0008093F101811146C01092EF011092EE0162
:101EC0001092ED011092EC018091CB0186FF1BC0B6
:101ED0008091CB0186FF07C061E070E080E090E078
:101EE0000E940613F5CF8091F00191E0892780933D
:101EF000F00181112CC01092EF011092EE011092AE
:101F0000ED011092EC018091CB0187FF25C08091FB
:101F1000CB0187FF07C061E070E080E090E00E94A5
:101F20000613F5CF8091F30191E089278093F301A7
:101F300081110C9470060C9482061092F10110929B
:101F4000F001A3CF1092F2011092F001BDCF1092D8
:101F5000F2011092F101D7CF08958091CA010E9439
:101F600076058091CA01833020F48F5F8093CA0187
:101F700002C01092CA010E94700E0E94BF0A0E9405
:101F800094068091F80181110E9445070E94790909
:101F90000C94A103CF92EF920F9343E1C42E52E130
:101FA000E52E01E120E14EE06FE085E092E00E9445
:101FB000901167E771E08FEF91E00E94F11367E7FE
:101FC00071E089EF91E00F91EF90CF900C94F113B5
:101FD00089EF91E00E9483138FEF91E00C948313BB
:101FE000CF93DF93D1E087E292E00E948915892B9D
:101FF00079F087E292E00E94A215C82F682F8FEF38
:1020000091E00E946214CA3071F7D093F801EBCFCF
:10201000DF91CF910895CF93DF93EC0160E08E8143
:102020000E94631281E090E00E942E1361E08E8195
:102030000E94631281E090E00E942E1360E08E8186
:102040000E94631284E690E0DF91CF910C942E13EE
:10205000CF92DF92EF92FF920F931F93CF93DF9374
:102060007C01C0E0D0E0C62ED12C87010C0F1D1FD3
:1020700061E0F80187810E942A12B6010C2E02C08D
:10208000759567950A94E2F76170F80187810E945F
:1020900063122196C430D10541F7C701DF91CF917A
:1020A0001F910F91FF90EF90DF90CF900C940B1049
:1020B000CF92DF92EF92FF920F931F93CF93DF9314
:1020C0007C01C0E0D0E0C62ED12C87010C0F1D1F73
:1020D00061E0F80187810E942A12B6010C2E02C02D
:1020E000759567950A94E2F76170F80187810E94FF
:1020F00063122196C830D10541F7C701DF91CF9116
:102100001F910F91FF90EF90DF90CF900C940B10E8
:102110001F93CF93DF93EC01162F642F8C810E94C5
:1021200063128D818F3F19F060E00E9463128F85EA
:10213000612F84FF06C0CE01DF91CF911F910C94D7
:10214000581070E084E0759567958A95E1F7CE01A7
:102150000E942810612FCE01DF91CF911F910C9426
:10216000281040E00C94881061E00E94B11080EDCE
:1021700097E00C942E13443008F043E0FC012389CF
:10218000421710F04FEF420FFC01E40FF11D2489BC
:10219000260F2068622F0C94B110FC016089262F55
:1021A0002460208B6C600C94B110CF93DF93EC0112
:1021B000423018F08F8588608F874B8B1C8A80E4B3
:1021C0008D8B6E8B70E0605C7F4F6F8B222329F0CC
:1021D000413019F48F8584608F8780E593EC0E94ED
:1021E0002E1360E08C810E94631260E08E810E9459
:1021F00063128D818F3F19F060E00E9463126F853A
:1022000064FD1DC063E0CE010E94281084E991E1C5
:102210000E942E1363E0CE010E94281084E991E110
:102220000E942E1363E0CE010E94281086E990E000
:102230000E942E1362E0CE010E94281016C0606238
:10224000CE010E94B11084E991E10E942E136F85A6
:102250006062CE010E94B11086E990E00E942E13C8
:102260006F856062CE010E94B1106F856062CE0101
:102270000E94B11084E0888BCE010E94CD10CE0167
:102280000E94B41082E0898B66E0CE01DF91CF918D
:102290000C94B1106F927F928F92AF92CF92EF9287
:1022A0000F931F93CF93DF93CDB7DEB73C01162F6B
:1022B000842F5D854E853F859889F301848325832E
:1022C0000683E782C086A186828653874487358746
:1022D000968761E00E942A12F30185818F3F19F0F1
:1022E00061E00E942A1261E0F30186810E942A12B5
:1022F000112319F0F301178603C080E1F3018787EA
:1023000020E041E060E1C301DF91CF911F910F9187
:10231000EF90CF90AF908F907F906F900C94D510EE
:102320008F92AF92CF92EF920F93DC0113961C9293
:102330001E921297E7EAF1E0ED93FC931F921F9231
:102340001F921F928C2CAE2CC02EE22E042F2FEF4A
:10235000462F61E00E944A110F900F900F900F904E
:102360000F91EF90CF90AF908F900895FC0160890E
:102370006D7F608B68600C94B110FC016089262F22
:102380002260208B6A600C94B11041E00E9488109A
:1023900081E090E00895CF93CFB7F89480911D022B
:1023A000811127C0EAE9F0E08491E6E8F0E0949139
:1023B000E82FF0E0EE0FFF1FE255FF4FA591B4911B
:1023C0008C91892321F461E08AE00E94631261E02C
:1023D0008AE00E942A128CB580618CBD8CB5806425
:1023E0008CBD61E08DE00E942A1261E08BE00E94CA
:1023F0002A1280911D028F5F80931D02CFBFCF9163
:102400000895833081F028F4813099F08230A1F072
:1024100008958730A9F08830B9F08430D1F48091E4
:1024200080008F7D03C0809180008F778093800033
:10243000089584B58F7702C084B58F7D84BD0895DB
:102440008091B0008F7703C08091B0008F7D809322
:10245000B0000895CF93DF9390E0FC01E458FF4F64
:102460002491FC01E057FF4F8491882349F190E0CB
:10247000880F991FFC01E255FF4FA591B4918C552F
:102480009F4FFC01C591D4919FB7611108C0F8948A
:102490008C91209582238C93888182230AC062309C
:1024A00051F4F8948C91322F309583238C9388814A
:1024B000822B888304C0F8948C91822B8C939FBFCD
:1024C000DF91CF9108950F931F93CF93DF931F92C6
:1024D000CDB7DEB7282F30E0F901E859FF4F8491DE
:1024E000F901E458FF4F1491F901E057FF4F0491AF
:1024F0000023C9F0882321F069830E9401126981B9
:10250000E02FF0E0EE0FFF1FEC55FF4FA591B491C7
:102510009FB7F8948C91611103C01095812301C07D
:10252000812B8C939FBF0F90DF91CF911F910F91C3
:1025300008951F920F920FB60F9211242F933F937D
:102540008F939F93AF93BF9380911F02909120022E
:10255000A0912102B091220230911E0223E0230FAC
:102560002D3720F40196A11DB11D05C026E8230FCB
:102570000296A11DB11D20931E0280931F0290930D
:102580002002A0932102B093220280912302909115
:102590002402A0912502B09126020196A11DB11D31
:1025A0008093230290932402A0932502B0932602E5
:1025B000BF91AF919F918F913F912F910F900FBE3F
:1025C0000F901F9018953FB7F89480912302909137
:1025D0002402A0912502B091260226B5A89B05C031
:1025E0002F3F19F00196A11DB11D3FBF6627782F1F
:1025F000892F9A2F620F711D811D911D42E0660F78
:10260000771F881F991F4A95D1F70895CF92DF92BF
:10261000EF92FF92CF93DF936B017C010E94E31254
:10262000EB01C114D104E104F10489F00E94F9180E
:102630000E94E3126C1B7D0B683E734090F381E0B7
:10264000C81AD108E108F108C851DC4FEACFDF9180
:10265000CF91FF90EF90DF90CF900895019739F0E0
:10266000880F991F880F991F02970197F1F7089516
:10267000789484B5826084BD84B5816084BD85B55D
:10268000826085BD85B5816085BDEEE6F0E0808124
:1026900081608083E1E8F0E0108280818260808345
:1026A000808181608083E0E8F0E0808181608083C8
:1026B000E1EBF0E0808184608083E0EBF0E08081FA
:1026C00081608083EAE7F0E080818460808380819C
:1026D0008260808380818160808380818068808344
:1026E0001092C100089508950E9438130E94731338
:1026F0000E940704C6EBD5E10E94AD0F2097E1F3DD
:102700000E94B615F9CFFC01808191810C94D91BF0
:10271000CF93DF93EC0188819981009711F00E949B
:10272000D91B198218821D821C821B821A82DF919A
:10273000CF9108950F931F93CF93DF93EC018B01FB
:102740006F5F7F4F888199810E94681C009731F0EC
:10275000998388831B830A8381E001C080E0DF9135
:10276000CF911F910F910895CF93DF93EC01888152
:102770009981892B29F08A819B818617970760F4BC
:10278000CE010E949A13882341F08C819D81892B70
:1027900019F4E881F981108281E0DF91CF910895E9
:1027A000EF92FF920F931F93CF93DF93EC017B0186
:1027B0008A01BA010E94B413811104C0CE010E94A3
:1027C000881307C01D830C83B701888199810E94FB
:1027D000501DCE01DF91CF911F910F91FF90EF908F
:1027E0000895FC01118210821382128215821482D4
:1027F0006115710559F0FB0101900020E9F7AF0167
:1028000041505109461B570B0C94D0130895CF9398
:10281000DF93EC01FB018617970761F060817181FE
:102820006115710529F0448155810E94D01302C0C1
:102830000E948813CE01DF91CF910895CF93DF934B
:10284000EC016115710561F0FB0101900020E9F7D1
:10285000AF0141505109461B570B0E94D01302C0D3
:102860000E948813CE01DF91CF910895EF92FF92DD
:102870000F931F93CF93DF93EC017B010C811D819C
:102880006115710511F480E016C04115510591F0F4
:10289000040F151FB8010E94B4138823A1F32881E7
:1028A00039818C819D81B701820F931F0E94501D39
:1028B0001D830C8381E0DF91CF911F910F91FF90D9
:1028C000EF900895CF93DF9300D0CDB7DEB7698343
:1028D0001A8241E050E0BE016F5F7F4F0E943614C4
:1028E0000F900F90DF91CF910895FC0124813581E5
:1028F000232B31F421E061157105A1F0FB0108C023
:10290000FC01808191816115710531F421E0FC01A8
:102910008081882339F005C00E94471D21E0892B62
:1029200009F020E0822F0895BF92CF92DF92EF92BC
:10293000FF920F931F93CF93DF936C017B01EA010A
:1029400089012417350720F48D2FE901042F182F52
:1029500067E771E0C6010E94F113D70114968D91CB
:102960009C911597C817D907C8F48017910708F4E8
:102970008C01D701ED91FC911197E00FF11FB08010
:1029800010826D917C916C0F7D1FC6010E941E14F8
:10299000D701ED91FC91E00FF11FB082C601DF91EC
:1029A000CF911F910F91FF90EF90DF90CF90BF904C
:1029B0000895FC0180819181009711F00C94321DE3
:1029C00060E070E0CB0108951F920F920FB60F9256
:1029D00011242F938F939F93EF93FF93E0913702EE
:1029E000F09138028081E0913D02F0913E0282FD3B
:1029F00012C09081809140028F5F8F7320914102BD
:102A0000821751F0E0914002F0E0E95DFD4F958FB3
:102A10008093400201C08081FF91EF919F918F913F
:102A20002F910F900FBE0F901F9018951F920F922D
:102A30000FB60F9211242F933F934F935F936F9391
:102A40007F938F939F93AF93BF93EF93FF9387E20F
:102A500092E00E94C415FF91EF91BF91AF919F91B9
:102A60008F917F916F915F914F913F912F910F9037
:102A70000FBE0F901F90189587E292E00E94891573
:102A800021E0892B09F420E0822F089510922A0278
:102A90001092290288EE93E0A0E0B0E080932B0230
:102AA00090932C02A0932D02B0932E028FEA91E016
:102AB000909328028093270285EC90E09093340253
:102AC0008093330284EC90E0909336028093350239
:102AD00080EC90E0909338028093370281EC90E094
:102AE00090933A028093390282EC90E090933C02FA
:102AF00080933B0286EC90E090933E0280933D02EF
:102B0000109240021092410210924202109243022F
:102B10000895FC01818D228D90E0805C9F4F821B87
:102B200091098F7399270895FC01918D828D9817D3
:102B300031F0828DE80FF11D858D90E008958FEFC3
:102B40009FEF0895FC01918D828D981761F0828D21
:102B5000DF01A80FB11D5D968C91928D9F5F9F73D1
:102B6000928F90E008958FEF9FEF08958CE395E1A9
:102B7000892B49F080EF9FE0892B29F00E943C15BA
:102B800081110C94F00F0895FC01848DDF01A80FD2
:102B9000B11DA35ABF4F2C91848D90E001968F7385
:102BA0009927848FA689B7892C93A089B1898C91A4
:102BB00080648C93938D848D981306C00288F3896A
:102BC000E02D80818F7D80830895CF93DF93EC018A
:102BD000888D8823C9F0EA89FB89808185FD05C03D
:102BE000A889B9898C9186FD0FC00FB607FCF5CF77
:102BF000808185FFF2CFA889B9898C9185FFEDCFBF
:102C0000CE010E94C415E7CFDF91CF910895CF92F6
:102C1000DF92FF920F931F93CF93DF931F92CDB755
:102C2000DEB76C01DC015B969C915B975C968C91A6
:102C30005C97981307C05096ED91FC915197808155
:102C400085FD32C0F601038D10E00F5F1F4F0F733B
:102C50001127F02EF601848DF81211C00FB607FC73
:102C6000F9CFD6015096ED91FC915197808185FF67
:102C7000F1CFC60169830E94C4156981EBCF838DB2
:102C8000E80FF11DE35AFF4F6083D6015B960C936A
:102C90005B975296ED91FC9153978081806280837F
:102CA00081E058968C930DC0D6015696ED91FC911B
:102CB000579760835096ED91FC9151978081806485
:102CC000808381E090E00F90DF91CF911F910F9171
:102CD000FF90DF90CF900895BF92CF92DF92EF9256
:102CE000FF92CF93DF93EC016A017B01B22EE8895A
:102CF000F98982E08083411581EE580761057105ED
:102D0000A1F060E079E08DE390E0A70196010E94D8
:102D1000191B21503109410951095695479537959D
:102D20002795211580E1380798F0E889F989108204
:102D300060E874E88EE190E0A70196010E94191BFB
:102D400021503109410951095695479537952795E5
:102D5000EC85FD853083EE85FF852083188EEC8918
:102D6000FD89B082EA89FB89808180618083EA895C
:102D7000FB89808188608083EA89FB898081806803
:102D80008083EA89FB8980818F7D8083DF91CF9169
:102D9000FF90EF90DF90CF90BF900895CF92DF9299
:102DA000EF92FF920F931F93CF93DF936C017A0101
:102DB000EB01E60EF71E00E010E0CE15DF0561F036
:102DC0006991D601ED91FC910190F081E02DC60151
:102DD0000995080F191FF1CFC801DF91CF911F91FD
:102DE0000F91FF90EF90DF90CF90089561157105DE
:102DF00081F0DB010D900020E9F7AD014150510950
:102E0000461B570BDC01ED91FC910280F381E02D14
:102E1000099480E090E008950C94F616DC01ED91A1
:102E2000FC910190F081E02D09940F931F93CF93B3
:102E3000DF93EC016DE00E940E178C016AE0CE0179
:102E40000E940E17800F911FDF91CF911F910F915C
:102E500008950F931F93CF93DF93EC010E94F61612
:102E60008C01CE010E941517800F911FDF91CF9129
:102E70001F910F9108958F929F92AF92BF92CF9220
:102E8000DF92EF92FF920F931F93CF93DF93CDB713
:102E9000DEB7A1970FB6F894DEBF0FBECDBF7C01A1
:102EA000C42EE52FCB01D22E19A221E02D1510F052
:102EB0002AE0D22E8E010F5D1F4F8D2C912CA12C5C
:102EC000B12C6C2D7E2FA50194010E94191B8C2D15
:102ED000D29E80191124015011098A3014F4805DAA
:102EE00001C0895CF8018083211531054105510538
:102EF00021F0C22EE32FCA01E4CFB801C7010E941E
:102F0000F616A1960FB6F894DEBF0FBECDBFDF91C7
:102F1000CF911F910F91FF90EF90DF90CF90BF90D6
:102F2000AF909F908F900895CF92DF92EF92FF9293
:102F30000F931F93CF93DF93EC016A017B0121155F
:102F4000310579F4E881F9810190F081E02D642F59
:102F5000DF91CF911F910F91FF90EF90DF90CF9075
:102F600009942A303105E9F477FF1AC06DE20E9416
:102F70000E178C0144275527BA014C195D096E09BB
:102F80007F092AE0CE010E943B17800F911FDF913D
:102F9000CF911F910F91FF90EF90DF90CF90089508
:102FA0002AE0B701A601CE01DF91CF911F910F91C9
:102FB000FF90EF90DF90CF900C943B179A01AB01FC
:102FC000662757FD6095762F0C94941721153105CF
:102FD00041F4DC01ED91FC910190F081E02D642F32
:102FE00009940C943B179A01462F50E060E070E082
:102FF0000C94E6174F925F926F927F928F929F92FE
:10300000AF92BF92CF92DF92EF92FF920F931F93F6
:10301000CF93DF93EC016A017B01B22E9A01AB01E1
:10302000C701B6010E94151B882319F06BEB71E0F4
:1030300027C026013701E89477F82FEF3FEF4FE7DD
:103040005FE7C301B2010E94151B81110DC02FEF74
:103050003FEF4FE75FE7C301B2010E945F19181607
:103060001CF46FEB71E00CC02FEF3FEF4FE75FE414
:10307000C701B6010E94AE1A1816ACF463EC71E0F9
:10308000CE01DF91CF911F910F91FF90EF90DF90D4
:10309000CF90BF90AF909F908F907F906F905F90F8
:1030A0004F900C94F6162FEF3FEF4FE75FECC70100
:1030B000B6010E945F1987FDE1CF20E030E0A90151
:1030C000C701B6010E945F1987FF0AC06DE2CE01F9
:1030D0000E940E178C01F7FAF094F7F8F09402C0F2
:1030E00000E010E0A12C60E070E080E09FE3AB1412
:1030F00041F020E030E040E251E40E946319A394E3
:10310000F6CF9B01AC01C701B6010E94FB186B0111
:103110007C010E94D0192B013C010E94FC199B01EB
:10312000AC01C701B6010E94FA186B017C012AE0CC
:10313000B301A201CE010E943B17080F191FBB204B
:1031400039F067EC71E0CE010E94F616080F191FE6
:103150007B2C772041F120E030E040E251E4C701D0
:10316000B6010E94B21A6B017C010E94CB194B017F
:10317000AA2497FCA094BA2C2AE030E0B501A4015F
:10318000CE010E949417080F191FC501B4010E94B7
:10319000FE199B01AC01C701B6010E94FA186B0130
:1031A0007C017A94D6CFC801DF91CF911F910F9106
:1031B000FF90EF90DF90CF90BF90AF909F908F9057
:1031C0007F906F905F904F9008950C94FA170F9333
:1031D0001F93CF93DF93EC010E94FA178C01CE016D
:1031E0000E941517800F911FDF91CF911F910F91B2
:1031F000089508955058BB27AA270ED075C166D1EF
:1032000030F06BD120F031F49F3F11F41EF45BC11C
:103210000EF4E095E7FB51C1E92F77D180F3BA179F
:10322000620773078407950718F071F49EF58FC144
:103230000EF4E0950B2EBA2FA02D0B01B9019001D1
:103240000C01CA01A0011124FF27591B99F0593F15
:1032500050F4503E68F11A16F040A22F232F342F5D
:103260004427585FF3CF469537952795A795F040AB
:103270005395C9F77EF41F16BA0B620B730B840BC0
:10328000BAF09150A1F0FF0FBB1F661F771F881F78
:10329000C2F70EC0BA0F621F731F841F48F48795D0
:1032A00077956795B795F7959E3F08F0B3CF9395BF
:1032B000880F08F09927EE0F979587950895D9D034
:1032C00008F481E008950CD00FC107D140F0FED082
:1032D00030F021F45F3F19F0F0C0511139C1F3C053
:1032E00014D198F39923C9F35523B1F3951B550BCA
:1032F000BB27AA2762177307840738F09F5F5F4FC9
:10330000220F331F441FAA1FA9F333D00E2E3AF009
:10331000E0E830D091505040E695001CCAF729D023
:10332000FE2F27D0660F771F881FBB1F2617370772
:103330004807AB07B0E809F0BB0B802DBF01FF27A2
:1033400093585F4F2AF09E3F510568F0B6C000C108
:103350005F3FECF3983EDCF3869577956795B795DC
:10336000F7959F5FC9F7880F911D9695879597F9F7
:103370000895E1E0660F771F881FBB1F6217730770
:103380008407BA0720F0621B730B840BBA0BEE1F85
:1033900088F7E095089504D06894B111D9C00895D4
:1033A000BCD088F09F5790F0B92F9927B751A0F063
:1033B000D1F0660F771F881F991F1AF0BA95C9F7C9
:1033C00012C0B13081F0C3D0B1E00895C0C0672F02
:1033D000782F8827B85F39F0B93FCCF38695779579
:1033E0006795B395D9F73EF4909580957095619562
:1033F0007F4F8F4F9F4F0895E89409C097FB3EF48D
:1034000090958095709561957F4F8F4F9F4F992331
:10341000A9F0F92F96E9BB279395F69587957795AF
:103420006795B795F111F8CFFAF4BB0F11F460FF6F
:103430001BC06F5F7F4F8F4F9F4F16C0882311F0C7
:1034400096E911C0772321F09EE8872F762F05C0DB
:10345000662371F096E8862F70E060E02AF09A9576
:10346000660F771F881FDAF7880F9695879597F96B
:103470000895990F0008550FAA0BE0E8FEEF161605
:103480001706E807F907C0F012161306E407F50758
:1034900098F0621B730B840B950B39F40A2661F0CC
:1034A000232B242B252B21F408950A2609F4A1406F
:1034B000A6958FEF811D811D089597F99F6780E87C
:1034C00070E060E008959FEF80EC089500240A9476
:1034D0001616170618060906089500240A941216EF
:1034E0001306140605060895092E0394000C11F422
:1034F000882352F0BB0F40F4BF2B11F460FF04C0CF
:103500006F5F7F4F8F4F9F4F089557FD9058440F27
:10351000551F59F05F3F71F04795880F97FB991F32
:1035200061F09F3F79F087950895121613061406EF
:10353000551FF2CF4695F1DF08C01616170618067C
:10354000991FF1CF86957105610508940895E89457
:10355000BB2766277727CB0197F908958ADF08F400
:103560008FEF08950BD0C0CFB1DF28F0B6DF18F091
:10357000952309F0A2CFA7CF1124EACFC6DFA0F38D
:10358000959FD1F3950F50E0551F629FF001729FF8
:10359000BB27F00DB11D639FAA27F00DB11DAA1F17
:1035A000649F6627B00DA11D661F829F2227B00D64
:1035B000A11D621F739FB00DA11D621F839FA00DEF
:1035C000611D221F749F3327A00D611D231F849F3F
:1035D000600D211D822F762F6A2F11249F57504096
:1035E0008AF0E1F088234AF0EE0FFF1FBB1F661F31
:1035F000771F881F91505040A9F79E3F510570F0EA
:103600005CCFA6CF5F3FECF3983EDCF386957795D1
:103610006795B795F795E7959F5FC1F7FE2B880FE4
:10362000911D9695879597F9089523DF880B990B3F
:103630000895A1E21A2EAA1BBB1BFD010DC0AA1FF3
:10364000BB1FEE1FFF1FA217B307E407F50720F00B
:10365000A21BB30BE40BF50B661F771F881F991F86
:103660001A9469F760957095809590959B01AC01CF
:10367000BD01CF010895EE0FFF1F0590F491E02DDD
:103680000994CF93DF938230910510F482E090E0AB
:10369000E091C602F091C70220E030E0A0E0B0E087
:1036A000309739F14081518148175907B8F04817D0
:1036B000590771F482819381109729F013969C9396
:1036C0008E9312972CC09093C7028093C60227C096
:1036D0002115310531F04217530718F0A901DB011C
:1036E00001C0EF019A01BD01DF010280F381E02DED
:1036F000D7CF21153105F9F0281B390B24303105BE
:1037000080F48A819B816115710521F0FB0193830F
:10371000828304C09093C7028093C602FE01329652
:1037200044C0FE01E20FF31F8193919322503109AF
:10373000398328833AC02091C4023091C502232BDB
:1037400041F420910201309103013093C50220938E
:10375000C40220910001309101012115310541F48D
:103760002DB73EB74091040150910501241B350B44
:10377000E091C402F091C502E217F307A0F42E1BFA
:103780003F0B2817390778F0AC014E5F5F4F2417C5
:10379000350748F04E0F5F1F5093C5024093C40297
:1037A0008193919302C0E0E0F0E0CF01DF91CF91EF
:1037B0000895CF93DF93009709F487C0FC013297F7
:1037C00013821282C091C602D091C702209781F461
:1037D00020813181280F391F8091C4029091C50248
:1037E0008217930779F5F093C502E093C4026DC088
:1037F000DE0120E030E0AE17BF0750F412964D9185
:103800005C9113979D014115510509F1DA01F3CF40
:10381000B383A28340815181840F951F8A179B0730
:1038200071F48D919C911197840F951F029691834D
:10383000808312968D919C91139793838283211597
:10384000310529F4F093C702E093C6023EC0D901C6
:103850001396FC93EE9312974D915D91A40FB51FB3
:10386000EA17FB0779F480819181840F951F0296F6
:10387000D90111969C938E938281938113969C9388
:103880008E931297E0E0F0E08A819B81009719F017
:10389000FE01EC01F9CFCE01029628813981820F19
:1038A000931F2091C4023091C5022817390769F48B
:1038B000309729F41092C7021092C60202C01382F8
:1038C0001282D093C502C093C402DF91CF910895B4
:1038D000A0E0B0E0EEE6FCE10C94151FEC01CB019A
:1038E000209719F40E94411BB8C0FE01E60FF71F94
:1038F0009E0122503109E217F30708F4ACC0D90148
:103900000D911C91119706171707B8F00530110596
:1039100008F49FC0A801445051094617570708F4FE
:1039200098C002501109061B170B019311936D9358
:103930007C93CF010E94D91B8CC05B01A01AB10AF5
:103940004E01800E911EA091C602B091C702612C5B
:10395000712C60E070E0109709F449C0A815B90512
:10396000C9F5ED90FC901197670142E0C40ED11C9F
:10397000CA14DB0478F147018A189B08640142E00D
:10398000C40ED11C1296BC9012971396AC91B5E060
:10399000CB16D10440F0B282A38391828082D901F8
:1039A0008D939C9309C00E5F1F4F0E0D1F1DF901D3
:1039B00011830083EB2DFA2F6115710531F0DB01C6
:1039C0001396FC93EE93129744C0F093C702E093D2
:1039D000C6023FC06D917C9111976616770608F478
:1039E0003B01BD0112960D90BC91A02DB4CF60910A
:1039F000C4027091C50268157905E9F46816790664
:103A0000D0F440910001509101014115510541F45C
:103A10004DB75EB76091040170910501461B570BCD
:103A2000E417F507C0F4F093C502E093C402F9016E
:103A3000918380830EC00E94411B7C01009759F046
:103A4000A801BE010E943E1DCE010E94D91BC701E4
:103A500004C0CE0102C080E090E0CDB7DEB7EEE05A
:103A60000C94311F662777270C94781D9111A3C100
:103A7000803219F089508550D0F70895FB01DC01A0
:103A800002C001900D9241505040D8F70895FB01BB
:103A9000DC018D91019080190110D9F3990B0895E3
:103AA000FB01DC0101900D920020E1F70895F999E6
:103AB000FECF92BD81BDF89A992780B50895A8E1FF
:103AC000B0E042E050E00C94F81E262FF999FECFAA
:103AD0001FBA92BD81BD20BD0FB6F894FA9AF99A2B
:103AE0000FBE019608950E94651D272F0C94661D38
:103AF000A0E0B0E0EEE7FDE10C94171F8B0161152B
:103B0000710521F0DB018C9311969C93EC015E0111
:103B1000BFEFAB1ABB0A7501C8808C2D90E00E94E4
:103B2000361D892B11F0E501F2CFEDE2CE1208C06F
:103B30007E01F2E0EF0EF11CC980DD24D39409C0B0
:103B40002BE2C21205C07E0142E0E40EF11CC980E6
:103B5000D12CE701219743E050E060EC70E0CE010A
:103B60000E94DE1E892BC1F4239645E050E06BEBEA
:103B700070E0CE010E94DE1E892B09F42596011506
:103B8000110519F0D801CD93DC93D11006C160E086
:103B900070E080E89FE70AC143E050E068EB70E026
:103BA000CE010E94DE1E892B59F40115110509F47E
:103BB000F9C0B2E0EB0EF11CF801F182E082F2C034
:103BC000F70160E070E0CB01C0E0D0E07F01A0ED44
:103BD000AA2EAC0C29E02A1530F14D2D4260B42EEE
:103BE0002D2D2870D2FE04C0211125C0219623C09E
:103BF00021112197A5E0B0E09B01AC010E94061FB6
:103C0000660F771F881F991F6A0D711D811D911DF9
:103C10006839A9E97A078A07A9E19A0760F0BD2DFA
:103C2000B660BB2E08C02EEFA2120AC0D3FC50C053
:103C30004D2D4860B42E3196D701CC90DB2CC6CFE9
:103C40002C2D2F7D253409F043C0A081AD3241F4E5
:103C5000BD2DB061DB2E7F0122E0E20EF11C0CC015
:103C60007F01AB3231F04FEFE41AF40A21E030E08B
:103C700006C0A2E0EA0EF11CA18122E030E0A053D0
:103C8000AA3018F0E21AF30A23C0F70120E030E06E
:103C90002038BCE03B075CF4A901440F551F440FDA
:103CA000551F240F351F220F331F2A0F311DAF015F
:103CB0004F5F5F4F7A01A081A053AA3010F4FA0140
:103CC000E7CFD4FE03C0319521953109C20FD31F30
:103CD000D1FE09C00115110531F0E1E0EE1AF1083D
:103CE000D801ED92FC920E94FC192D2D23702330F7
:103CF00019F04B015C0106C04B015C01B7FAB094AE
:103D0000B7F8B09420E030E0A901C501B4010E94E9
:103D10005F19882309F43EC0D7FF06C0D195C1952D
:103D2000D10907ED10E002C00FEE10E06801B8E124
:103D3000CB1AD10890E2E92EF12CCE15DF0574F0F4
:103D4000F8012591359145915491C501B4010E9426
:103D5000B21A4B015C01CE19DF09EFCF04501109F3
:103D6000F594E7940C151D0541F78A2D880F8B2DCE
:103D7000881F8F3F49F020E030E0A901C501B40160
:103D80000E945F19811106C082E290E09093C902FF
:103D90008093C802C501B40109C060E070E080E80A
:103DA0009FEF04C060E070E080EC9FE7CDB7DEB726
:103DB000ECE00C94331F992788270895FB01DC0160
:103DC0004150504088F08D9181341CF08B350CF4BB
:103DD000805E659161341CF06B350CF4605E861B6F
:103DE000611171F3990B0895881BFCCFDC01CB01A5
:103DF000FC01F999FECF06C0F2BDE1BDF89A3196FB
:103E000000B40D9241505040B8F708950E94481FE9
:103E1000A59F900DB49F900DA49F800D911D11241E
:103E200008952F923F924F925F926F927F928F925E
:103E30009F92AF92BF92CF92DF92EF92FF920F9339
:103E40001F93CF93DF93CDB7DEB7CA1BDB0B0FB643
:103E5000F894DEBF0FBECDBF09942A883988488800
:103E60005F846E847D848C849B84AA84B984C88496
:103E7000DF80EE80FD800C811B81AA81B981CE0F8D
:103E8000D11D0FB6F894DEBF0FBECDBFED01089572
:103E9000A29FB001B39FC001A39F700D811D11248B
:103EA000911DB29F700D811D1124911D089510E088
:103EB000C8EFD0E004C0FE010E943D1B2296CA3F1D
:083EC000D107C9F7F894FFCF08
:103EC8000000CA02800001010D00020001000AD7AB
:103ED800233D8FC2F53C0AD7A33C0AD7233C0000F8
:103EE80000400000C03F0000803F0000003F6F120C
:103EF800833BA69B443B6F12033B6F12833A00003F
:103F080060410000504100004041000030412A4615
:103F180000565A005656002A30002A31002A32002C
:103F28002A33005631005031005231005500490003
:103F380041004675002020004C690000000000CDBB
:103F4800CCCC3D0AD7233C6F12833A0000803F0057
:103F5800000000CDCCCC3D0AD7233C6F12833A0039
:103F680000803F00000000C511CE160000000007C9
:103F780016CE168915A2159415E5156E616E0069A1
:0A3F88006E66006F7666002E0000E2
:00000001FF
